{
  "_format": "hh-sol-artifact-1",
  "contractName": "DefaultCallbackHandler",
  "sourceName": "@gnosis.pm/safe-contracts/contracts/handler/DefaultCallbackHandler.sol",
  "abi": [
    {
      "inputs": [],
      "name": "NAME",
      "outputs": [
        {
          "internalType": "string",
          "name": "",
          "type": "string"
        }
      ],
      "stateMutability": "view",
      "type": "function"
    },
    {
      "inputs": [],
      "name": "VERSION",
      "outputs": [
        {
          "internalType": "string",
          "name": "",
          "type": "string"
        }
      ],
      "stateMutability": "view",
      "type": "function"
    },
    {
      "inputs": [
        {
          "internalType": "address",
          "name": "",
          "type": "address"
        },
        {
          "internalType": "address",
          "name": "",
          "type": "address"
        },
        {
          "internalType": "uint256[]",
          "name": "",
          "type": "uint256[]"
        },
        {
          "internalType": "uint256[]",
          "name": "",
          "type": "uint256[]"
        },
        {
          "internalType": "bytes",
          "name": "",
          "type": "bytes"
        }
      ],
      "name": "onERC1155BatchReceived",
      "outputs": [
        {
          "internalType": "bytes4",
          "name": "",
          "type": "bytes4"
        }
      ],
      "stateMutability": "pure",
      "type": "function"
    },
    {
      "inputs": [
        {
          "internalType": "address",
          "name": "",
          "type": "address"
        },
        {
          "internalType": "address",
          "name": "",
          "type": "address"
        },
        {
          "internalType": "uint256",
          "name": "",
          "type": "uint256"
        },
        {
          "internalType": "uint256",
          "name": "",
          "type": "uint256"
        },
        {
          "internalType": "bytes",
          "name": "",
          "type": "bytes"
        }
      ],
      "name": "onERC1155Received",
      "outputs": [
        {
          "internalType": "bytes4",
          "name": "",
          "type": "bytes4"
        }
      ],
      "stateMutability": "pure",
      "type": "function"
    },
    {
      "inputs": [
        {
          "internalType": "address",
          "name": "",
          "type": "address"
        },
        {
          "internalType": "address",
          "name": "",
          "type": "address"
        },
        {
          "internalType": "uint256",
          "name": "",
          "type": "uint256"
        },
        {
          "internalType": "bytes",
          "name": "",
          "type": "bytes"
        }
      ],
      "name": "onERC721Received",
      "outputs": [
        {
          "internalType": "bytes4",
          "name": "",
          "type": "bytes4"
        }
      ],
      "stateMutability": "pure",
      "type": "function"
    },
    {
      "inputs": [
        {
          "internalType": "bytes4",
          "name": "interfaceId",
          "type": "bytes4"
        }
      ],
      "name": "supportsInterface",
      "outputs": [
        {
          "internalType": "bool",
          "name": "",
          "type": "bool"
        }
      ],
      "stateMutability": "view",
      "type": "function"
    },
    {
      "inputs": [
        {
          "internalType": "address",
          "name": "",
          "type": "address"
        },
        {
          "internalType": "address",
          "name": "",
          "type": "address"
        },
        {
          "internalType": "address",
          "name": "",
          "type": "address"
        },
        {
          "internalType": "uint256",
          "name": "",
          "type": "uint256"
        },
        {
          "internalType": "bytes",
          "name": "",
          "type": "bytes"
        },
        {
          "internalType": "bytes",
          "name": "",
          "type": "bytes"
        }
      ],
      "name": "tokensReceived",
      "outputs": [],
      "stateMutability": "pure",
      "type": "function"
    }
  ],
  "bytecode": "0x608060405234801561001057600080fd5b50610588806100206000396000f3fe608060405234801561001057600080fd5b506004361061007c5760003560e01c8063a3f4df7e1161005b578063a3f4df7e146100fb578063bc197c8114610144578063f23a6e6114610166578063ffa1ad741461018657600080fd5b806223de291461008157806301ffc9a71461009b578063150b7a02146100c3575b600080fd5b61009961008f366004610261565b5050505050505050565b005b6100ae6100a936600461030c565b6101aa565b60405190151581526020015b60405180910390f35b6100e26100d136600461033d565b630a85bd0160e11b95945050505050565b6040516001600160e01b031990911681526020016100ba565b6101376040518060400160405280601881526020017f44656661756c742043616c6c6261636b2048616e646c6572000000000000000081525081565b6040516100ba91906103ac565b6100e2610152366004610440565b63bc197c8160e01b98975050505050505050565b6100e26101743660046104da565b63f23a6e6160e01b9695505050505050565b610137604051806040016040528060058152602001640312e302e360dc1b81525081565b60006001600160e01b03198216630271189760e51b14806101db57506001600160e01b03198216630a85bd0160e11b145b806101f657506001600160e01b031982166301ffc9a760e01b145b92915050565b80356001600160a01b038116811461021357600080fd5b919050565b60008083601f84011261022a57600080fd5b50813567ffffffffffffffff81111561024257600080fd5b60208301915083602082850101111561025a57600080fd5b9250929050565b60008060008060008060008060c0898b03121561027d57600080fd5b610286896101fc565b975061029460208a016101fc565b96506102a260408a016101fc565b955060608901359450608089013567ffffffffffffffff808211156102c657600080fd5b6102d28c838d01610218565b909650945060a08b01359150808211156102eb57600080fd5b506102f88b828c01610218565b999c989b5096995094979396929594505050565b60006020828403121561031e57600080fd5b81356001600160e01b03198116811461033657600080fd5b9392505050565b60008060008060006080868803121561035557600080fd5b61035e866101fc565b945061036c602087016101fc565b935060408601359250606086013567ffffffffffffffff81111561038f57600080fd5b61039b88828901610218565b969995985093965092949392505050565b60006020808352835180602085015260005b818110156103da578581018301518582016040015282016103be565b506000604082860101526040601f19601f8301168501019250505092915050565b60008083601f84011261040d57600080fd5b50813567ffffffffffffffff81111561042557600080fd5b6020830191508360208260051b850101111561025a57600080fd5b60008060008060008060008060a0898b03121561045c57600080fd5b610465896101fc565b975061047360208a016101fc565b9650604089013567ffffffffffffffff8082111561049057600080fd5b61049c8c838d016103fb565b909850965060608b01359150808211156104b557600080fd5b6104c18c838d016103fb565b909650945060808b01359150808211156102eb57600080fd5b60008060008060008060a087890312156104f357600080fd5b6104fc876101fc565b955061050a602088016101fc565b94506040870135935060608701359250608087013567ffffffffffffffff81111561053457600080fd5b61054089828a01610218565b979a969950949750929593949250505056fea2646970667358221220de19c10401b871e3bdbe864bca901a1383323ae0bca79d2027035d67f8ecb85064736f6c63430008180033",
  "linkReferences": {},
  "deployedLinkReferences": {}
}