{
  "_format": "hh-sol-artifact-1",
  "contractName": "MultiSend",
  "sourceName": "@gnosis.pm/safe-contracts/contracts/libraries/MultiSend.sol",
  "abi": [
    {
      "inputs": [],
      "stateMutability": "nonpayable",
      "type": "constructor"
    },
    {
      "inputs": [
        {
          "internalType": "bytes",
          "name": "transactions",
          "type": "bytes"
        }
      ],
      "name": "multiSend",
      "outputs": [],
      "stateMutability": "payable",
      "type": "function"
    }
  ],
  "bytecode": "0x60a060405234801561001057600080fd5b503060805260805161025261002f6000396000604201526102526000f3fe60806040526004361061001e5760003560e01c80638d80ff0a14610023575b600080fd5b61003661003136600461016b565b610038565b005b6001600160a01b037f00000000000000000000000000000000000000000000000000000000000000001630036100cd5760405162461bcd60e51b815260206004820152603060248201527f4d756c746953656e642073686f756c64206f6e6c792062652063616c6c65642060448201526f1d9a584819195b1959d85d1958d85b1b60821b606482015260840160405180910390fd5b805160205b81811015610150578083015160f81c6001820184015160601c601583018501516035840186015160558501870160008560008114610117576001811461012757610132565b6000808585888a5af19150610132565b6000808585895af491505b508061013d57600080fd5b50508060550185019450505050506100d2565b505050565b634e487b7160e01b600052604160045260246000fd5b60006020828403121561017d57600080fd5b813567ffffffffffffffff8082111561019557600080fd5b818401915084601f8301126101a957600080fd5b8135818111156101bb576101bb610155565b604051601f8201601f19908116603f011681019083821181831017156101e3576101e3610155565b816040528281528760208487010111156101fc57600080fd5b82602086016020830137600092810160200192909252509594505050505056fea264697066735822122048ffb0b3f2f2f62a39869c615643ea2c865185e980e34e3526010f09632332aa64736f6c63430008180033",
  "linkReferences": {},
  "deployedLinkReferences": {}
}